:100000000C9446000C9465000C9465000C946500FB
:100010000C9465000C9465000C9465000C946500CC
:100020000C9465000C9465000C9465000C946500BC
:100030000C9465000C9465000C9465000C946500AC
:100040000C9465000C9465000C9465000C9465009C
:100050000C9465000C9465000C9465000C9465008C
:100060000C9465000C9465000C9465000C9465007C
:100070000C9465000C9465000C9465000C9465006C
:100080000C9465000C9465000C94650011241FBE4F
:10009000CFEFD0E1DEBFCDBF11E0A0E0B1E0E2E7FD
:1000A000F3E000E00BBF02C007900D92A232B1074F
:1000B000D9F711E0A2E2B1E001C01D92A532B1076B
:1000C000E1F70E9473010C94B7010C940000DA9AD6
:1000D0009091220180E002C08F5F9AE08A3FE0F3B6
:1000E0009093220180932301DA98089520912201B0
:1000F00090E002C09F5F2AE09817E0F3209322016E
:100100009093230108950F931F93082F8BB384704E
:100110008BBB802F807F8BBB0E94670010E00F702D
:10012000107084E0000F111F8A95E1F70BBB0E944D
:1001300067001F910F9108958BB3809324018FEF77
:100140008ABB2FE030E008C080E090E0000001961C
:100150004CE08C3C9407D1F7215030408FEF2F3F7B
:10016000380791F78BB384708BBB80E28BBB81E047
:100170000E9483008FE00E94830082E00E9483003F
:1001800080E80E9483002FE030E008C080E090E02B
:10019000000001964CE08C3C9407D1F72150304090
:1001A0008FEF2F3F380791F708951F93182F81E0A5
:1001B0008BBB8BB382708BBB812F807F81608BBBAD
:1001C0000E9467001295107F11601BBB0E946700A0
:1001D0001F910895EF92FF921F93CF93DF937C01BD
:1001E00081E08BBB8BB382708BBB10E013C01031EE
:1001F00019F480EC0E9483008881807F81608BBB32
:100200000E94670088818295807F81608BBB0E94FD
:1002100067001F5FE701C10FD11D8881882339F76F
:10022000DF91CF911F91FF90EF90089580580E9429
:100230008300089580540E9483000895893021F43A
:100240000E94D50089E006C08A3021F480E00E9437
:100250001A0108950E94D5000895EF92FF920F931E
:100260001F93182F64E60E948401482F282F30E046
:100270008CE99FEF289F7001299FF00C389FF00CAC
:100280001124C701810F911D6AE070E00E94900166
:10029000062F842F805D0E941E01802F805D0E94AA
:1002A0001E01105D1E0D86EF9FEF089F002D11248B
:1002B000802F810F0E941E011F910F91FF90EF90E0
:1002C0000895809124018BBB08950AC020E030E09E
:1002D00000002F5F3F4F4CE02C3C3407C9F70197DB
:1002E0000097A1F708950E949C0080E00E941601EB
:1002F00080E091E00E94EA0080E00E941A0180E123
:1003000091E00E94EA00FFCF991B79E004C0991F99
:10031000961708F0961B881F7A95C9F7809508955F
:1003200097FB092E07260AD077FD04D00CD006D003
:1003300000201AF4709561957F4F0895F6F7909517
:1003400081959F4F0895AA1BBB1B51E107C0AA1FAF
:10035000BB1FA617B70710F0A61BB70B881F991F66
:100360005A95A9F780959095BC01CD010895F89410
:02037000FFCFBD
:100372002020205468696E6B4C414253202020009B
:10038200754E69426F6172642076657220312E313A
:02039200000069
:00000001FF
