:100000000C9446000C9463000C9463000C94630001
:100010000C9463000C9463000C9463000C946300D4
:100020000C9463000C9463000C9463000C946300C4
:100030000C9463000C9463000C9463000C946300B4
:100040000C9463000C9463000C9463000C946300A4
:100050000C9463000C9463000C9463000C94630094
:100060000C9463000C9463000C9463000C94630084
:100070000C9463000C9463000C9463000C94630074
:100080000C9463000C9463000C94630011241FBE55
:10009000CFEFD0E1DEBFCDBF11E0A0E0B1E0ECE1F9
:1000A000F1E000E00BBF02C007900D92A030B10755
:1000B000D9F711E0A0E0B1E001C01D92A030B10776
:1000C000E1F70C9465000C94000087E6809399009A
:1000D0001092980088E180939A0086E880939D00B2
:1000E0008BE060E00E948200282F205DE0E0F0E0DD
:1000F00080919B0085FFFCCF20939C00CF0101974E
:10010000F1F7F6CF991B79E004C0991F961708F014
:0C011000961B881F7A95C9F7809508950A
:00000001FF
