:100000000C9446000C9465000C9465000C946500FB
:100010000C9465000C9465000C9465000C946500CC
:100020000C947E030C9465000C9465000C946500A0
:100030000C9465000C9465000C9465000C946500AC
:100040000C9465000C9465000C9465000C9465009C
:100050000C9465000C943F030C9465000C946500AF
:100060000C9465000C9465000C9465000C9465007C
:100070000C9465000C9465000C9465000C9465006C
:100080000C9465000C9465000C94650011241FBE4F
:10009000CFEFD0E1DEBFCDBF11E0A0E0B1E0E4E3FF
:1000A000FFE000E00BBF02C007900D92A236B1073F
:1000B000D9F711E0A2E6B1E001C01D92AA36B1075E
:1000C000E1F70E94C3020C9499070C940000209160
:1000D000620190E002C09F5F2AE09817E0F320934E
:1000E0006201909363010895DA9A8AEF0E94670093
:1000F000DA9808950F931F93082F8BB384708BBBEE
:10010000802F807F8BBB0E94740011270F701070AE
:1001100084E0000F111F8A95E1F70BBB0E94740069
:100120001F910F9108951F93182F81E08BBB8BB304
:1001300082708BBB812F807F81608BBB0E9474009B
:100140001295107F11601BBB0E9474001F910895CF
:10015000EF92FF920F931F93CF93DF937C0181E087
:100160008BBB8BB382708BBB00E010E014C090316E
:1001700019F480EC0E947A008881807F81608BBBBB
:100180000E94740088818295807F81608BBB0E9471
:1001900074000F5F1F4F902FE701C00FD11D8881A2
:1001A000882329F7DF91CF911F910F91FF90EF9056
:1001B000089580580E947A00089580540E947A0021
:1001C0000895CF93DF93893051F4C0E0D0E089E007
:1001D0000E9493002196C230D10549F0F8CF8A30B1
:1001E00021F480E00E94DD0002C00E949300DF91B4
:1001F000CF910895DF92EF92FF920F931F93D82E25
:1002000064E60E940D07282F94E6E92E8E9D70016A
:1002100011248D2D99278E199F096AE070E00E94A4
:100220002D078B01822F805D0E94E100802F805D71
:100230000E94E10080E3D80EDE188AE0089FC0012A
:100240001124D81A8D2D0E94E1001F910F91FF906B
:10025000EF90DF900895809164018BBB089509C0F1
:1002600020E030E000002F5F3F4F4CE02C3C340793
:10027000C9F701972FEF8F3F920791F708958BB33E
:10028000809364018FEF8ABB8FE090E00E942F0182
:100290008BB384708BBB80E28BBB81E00E947A00C1
:1002A0008FE00E947A0082E00E947A0080E80E943B
:1002B0007A000895EF92FF920F931F93CF93DF93ED
:1002C000CDB7DEB7EC970FB6F894DEBF0FBECDBF4B
:1002D0007B018C01DE015596E9E3F1E088E20190B3
:1002E0000D928150E1F7DE011196E5E2F1E084E143
:1002F00001900D928150E1F788E180939A0086E0A9
:1003000080939D00FE0175969E012F5F3F4F40E058
:1003100050E0BE01635C7F4F80819181A281B381F7
:100320008E159F05A007B10719F4D9014D915C9175
:1003300034962E5F3F4FE617F70771F7CA019070AA
:1003400080939900852F992780939800EC960FB69B
:10035000F894DEBF0FBECDBFDF91CF911F910F91FB
:10036000FF90EF900895982F80919B0085FFFCCF20
:1003700090939C00089580919B0087FFFCCF809113
:100380009C0099270895FC0107C080919B0085FF80
:10039000FCCF90939C00319690819923B1F70895FA
:1003A0000F931F93CF93DF93CDB7DEB723970FB68D
:1003B000F894DEBF0FBECDBF9C0119821A821B824A
:1003C00042E08E010F5F1F4F0FC0E40FF11DC90106
:1003D0006AE070E00E9419078083C9016AE070E05A
:1003E0000E9419079B014150F8012115310569F759
:1003F0009E012C5F3F4F908180919B0085FFFCCF39
:10040000905D90939C003196E217F307A1F7239635
:100410000FB6F894DEBF0FBECDBFDF91CF911F9115
:100420000F9108951F93982F162F80919B0085FFA1
:10043000FCCF8BE180939C0080919B0085FFFCCFDB
:100440008BE580939C00892F99274E960E94D001BE
:1004500080919B0085FFFCCF8BE380939C00812FD4
:10046000992788960E94D00180919B0085FFFCCF40
:100470008DE680939C001F910895FF920F931F9328
:10048000CF93DF93F82E162FEA01822F602F0E9460
:10049000120280919B0085FFFCCF8BE180939C0032
:1004A00080919B0085FFFCCF8BE580939C00812F82
:1004B00099270E94D00180919B0085FFFCCF8BE3A0
:1004C00080939C008F2D99270E94D00180919B00E2
:1004D00085FFFCCF88E480939C00CE010E94C3017D
:1004E000DF91CF911F910F91FF90089561E081E01E
:1004F0000E94120280E091E00E94C3010895EF92F1
:10050000FF920F931F93F82E162FE42E822F602F49
:100510000E94120280919B0085FFFCCF8BE18093AB
:100520009C0080919B0085FFFCCF8BE580939C0015
:10053000812F99270E94D00180919B0085FFFCCFDD
:100540008BE380939C008F2D99270E94D00180918E
:100550009B0085FFFCCF88E480939C0080919B00EA
:1005600085FFFCCFE0929C001F910F91FF90EF90D0
:1005700008950F93F89401E020E040E20E947F028A
:1005800078940F910895CFEFD0E1DEBFCDBF60E842
:1005900075E280E090E00E945A010E943F0181EEE6
:1005A00087B98FEE86B916981F9A80EC8ABF80E8CB
:1005B00089BF0E94760201E020E04AE26AE088E218
:1005C0000E947F0220E040E26AE088E20E947F020F
:1005D00020E045E051E068E182E30E943D0278942A
:1005E00038E2F32E1AE0809165018823E1F380E080
:1005F0000E94D900809123010E94FA0080E00E94AD
:10060000DD00809124010E94FA0010926501809122
:100610002301813F40F0FF2031F0612F8F2D0E9498
:10062000B902FA9424C0809123018A3048F480E50D
:100630008F1530F0612F8F2D0E94B902F39417C0EF
:1006400080912401813F40F0112331F0612F8F2DE3
:100650000E94B90211500BC0809124018A3018F613
:10066000193108F6612F8F2D0E94B9021F5F01E03A
:1006700020E04AE2612F8F2D0E947F02B4CF1F92AB
:100680000F920FB60F9211242F933F934F938F9396
:100690009F9345B1409368018091660190916701F5
:1006A000019690936701809366012091210130911A
:1006B000220182179307C1F410926701109266011C
:1006C00080916901882339F481E080936901409326
:1006D000230182EE05C0109269014093240181EE4E
:1006E00087B981E0809365019F918F914F913F91F0
:1006F0002F910F900FBE0F901F9018951F920F9281
:100700000FB60F921124EF92FF920F932F933F9306
:100710004F935F936F937F938F939F93AF93BF9309
:10072000EF93FF93CF93DF93CDB7DEB72A97DEBF6A
:10073000CDBF80912101909122018D52914058F1BD
:100740008091210190912201845690409093220142
:100750008093210180912101909122019F938F9399
:100760008CE191E09F938F937E010894E11CF11C32
:10077000FF92EF920E94040401E020E0A70168E1EB
:100780008BE40E943D028DB79EB706960FB6F89493
:100790009EBF0FBE8DBF2A96F894DEBFCDBFDF91FE
:1007A000CF91FF91EF91BF91AF919F918F917F91E9
:1007B0006F915F914F913F912F910F91FF90EF902B
:1007C0000F900FBE0F901F901895CF93DF93CDB76A
:1007D000DEB7C456D0400FB6F894DEBF0FBECDBF13
:1007E00080919B0087FFFCCF80919C008D30C1F7EA
:1007F000CE010196CC59DF4F0FB6F894DEBF0FBE85
:10080000CDBFDF91CF910895A0E1B0E0EAE0F4E040
:100810000C9470070F89188D86E08E831C830B83E0
:100820008FEF9FE798878F83AE01455E5F4F5A83B6
:100830004983698D7A8DCE0103960E94290429850A
:100840003A85020F131FF8011082E4E060960C94C1
:100850008C07A7E1B0E0EFE2F4E00C946207882493
:10086000992454012C017C8B6B8B3A01FC0117827B
:100870001682838181FD03C08FEF9FEF7EC2CC245F
:10088000DD249E012F5F3F4F3F8B2E8B65C2C0FE44
:1008900048C2832D80538A30D8F430E3331641F4B4
:1008A0008D85882329F4C3FC03C0E0E0F1E073C028
:1008B0008AE0FD85F802C00111248053830D8D87E5
:1008C00087FF02C02FE72D87C3FC40C22D843EC2A4
:1008D000960128703070C3FE05C08D85882311F401
:1008E00091E09D87E7E6E3156CF1F5E63F160CF025
:1008F00068C083E5381609F489C08315BCF09BE213
:10090000391609F442C093154CF0E0E23E1609F4A2
:1009100040C0F3E23F1609F0FCC143C02DE232169D
:10092000E9F13EE2331609F0F4C140C083E638161F
:1009300009F44DC083150CF481C098E5391609F00F
:10094000E8C120C0E0E73E1609F4A2C0E3155CF060
:10095000FCE63F1689F12FE6321689F039E63316A8
:1009600009F0D7C16BC085E7381609F499C098E73C
:10097000391641F0E3E73E1609F0CBC130C0F8E08C
:10098000F88B8EC020E1288B8BC080E190E0C82AD4
:10099000D92AE0E2F0E0CE2ADF2AD8C120E830E010
:1009A0000DC080E490E0C82AD92AD0C1E8E0F0E088
:1009B000CE2ADF2A1D86CAC124E030E0C22AD32A0B
:1009C000C5C13FE3832E2A9423E6322E30C1F301C2
:1009D00080802A9422E030E0620E731E28C1F30169
:1009E000A081B1814D01232B49F0FD856F2F772721
:1009F00067FD7095CD010E94D50618C0FD010190DC
:100A00000020E9F73197EA1BE88B11C0F3018081E0
:100A100091814C01232B41F0FD856F2F772767FDD6
:100A200070950E94CA0602C00E94C106888B22E00F
:100A300030E0620E731E3889231AF9C0C2FE08C066
:100A4000F30180819181A281B38124E030E009C06B
:100A5000F30180819181AA2797FDA095BA2F22E00A
:100A600030E0620E731E4C015D01B7FF0CC082E0E6
:100A700090E0C82AD92AB094A09490948094811CC4
:100A8000911CA11CB11CEFEBFFEFCE22DF2221C095
:100A900020E430E0C22AD32A98E7392E30E1388B9F
:100AA000C2FE08C0F30180819181A281B38124E05C
:100AB00030E007C0F30180819181AA27BB2722E0A3
:100AC00030E0620E731E4C015D018FEC9FEFC82277
:100AD000D92285017401FE013196FF87EE87F889DE
:100AE0008F2E9924AA24BB24232D21522D8BC8019B
:100AF000B701A50194010E9440076A301CF03D89AE
:100B0000630F01C0605DEE85FF856193FF87EE870F
:100B1000C801B701A50194010E94400779018A012B
:100B2000211531054105510511F7882499245401F7
:100B30004E85FE894F1B842EC60182739070892BCF
:100B400009F02A94C6FE07C02889203111F482E0FA
:100B500001C081E0281AC3FE12C08D85282F3327DB
:100B600027FD3095842F9927821793072CF0E7EF04
:100B7000FFEFCE22DF2203C0FD85F41BFD87860137
:100B800008701070C3FE03C02D85221A01C0241AFC
:100B9000C60180789170892B31F00AC0B20180E2E1
:100BA00090E00E94E0062A94822D8F5F1816B4F31D
:100BB000C1FE04C0B2018DE290E00BC0C4FE04C0CF
:100BC000B2018BE290E005C0C5FE05C0B20180E233
:100BD00090E00E94E006C6FE0FC0B20180E390E004
:100BE0000E94E0063889303139F4B201832D99270B
:100BF00087FD90950E94E006D0FC06C00AC0B201B5
:100C000080E390E00E94E0062A94822D8F5F181600
:100C1000B4F3012B31F40BC0B20180E390E00E94E9
:100C2000E0068D8581508D878F5F1816ACF3F60135
:100C3000E078F070FA8BE98BC7FE06C00AC0B201FB
:100C400080E290E00E94E0062A94822D8F5F1816C1
:100C5000B4F3F3E63F1641F4B201882D992787FDDE
:100C600090950E94E00645C023E73216B1F4640176
:100C70007401188909C0F70181917F01B201992798
:100C800087FD90950E94E0061150A8F74601F8896B
:100C90008F0E911C2FEF288B2CC033E5331619F0E3
:100CA0000E851F851FC064018401F88808C0F80103
:100CB0008491B20199270E94E0060F5F1F4FFA94BA
:100CC000FFEFFF16A1F746012889820E911CF88BD1
:100CD00010C0F80182918F01B201992787FD90958C
:100CE0000E94E0062E893F890217130791F71F879C
:100CF0000E8789899A89892B31F426C0B20180E256
:100D000090E00E94E0062A94822D8F5F1816B4F3BB
:100D10001BC0B201832D992787FD90950E94E006A4
:100D200013C095E2391641F4EAE0E88B22241D86CF
:100D300081E0C82ED12C0AC0B201832D992787FDEE
:100D400090950E94E00602C0CC24DD242B893C89CA
:100D50002F5F3F4F3C8B2B8BF201838183FF04C0BD
:100D6000EB89FC89349003C0EB89FC893080332007
:100D700009F08DCDF20186819781E2E167960C94AE
:100D80007E07FC0105900020E9F7809590958E0F75
:100D90009F1F0895FC010590615070400110D8F725
:100DA000809590958E0F9F1F0895FC0161507040B3
:100DB00001900110D8F7809590958E0F9F1F089590
:100DC0000F931F93CF93DF938C01EB018B819927B6
:100DD00081FF1BC082FF0DC02E813F818C819D81D0
:100DE0002817390764F4E881F9810193F983E883CE
:100DF00006C0E885F985802F0995892B31F48E810D
:100E00009F8101969F838E8302C00FEF1FEFC80161
:100E1000DF91CF911F910F910895991B79E004C044
:100E2000991F961708F0961B881F7A95C9F7809529
:100E30000895AA1BBB1B51E107C0AA1FBB1FA61721
:100E4000B70710F0A61BB70B881F991F5A95A9F773
:100E500080959095BC01CD01089597FB092E07263A
:100E60000AD077FD04D0E5DF06D000201AF4709593
:100E700061957F4F0895F6F7909581959F4F08955E
:100E8000A1E21A2EAA1BBB1BFD010DC0AA1FBB1F8E
:100E9000EE1FFF1FA217B307E407F50720F0A21B00
:100EA000B30BE40BF50B661F771F881F991F1A946D
:100EB00069F760957095809590959B01AC01BD0197
:100EC000CF0108952F923F924F925F926F927F923F
:100ED0008F929F92AF92BF92CF92DF92EF92FF924A
:100EE0000F931F93CF93DF93CDB7DEB7CA1BDB0BF6
:100EF0000FB6F894DEBF0FBECDBF09942A8839889B
:100F000048885F846E847D848C849B84AA84B984A1
:100F1000C884DF80EE80FD800C811B81AA81B981AD
:100F2000CE0FD11D0FB6F894DEBF0FBECDBFED01C1
:040F30000895FFCF52
:100F34001B5B324A00535045454420285357342004
:100F44006F6E20426F61726429203A002530346448
:100F540000DC0564649F01CF006700440033002275
:100F640000190010000C00080060090000C0120005
:100F7400008025000040380000004B000080700015
:100F8400000096000000E10000002C010000C201F6
:020F940000005B
:00000001FF
