:100000000C9446000C945D000C945D000C945D0013
:100010000C945D000C945D000C945D000C945D00EC
:100020000C945D000C945D000C945D000C945D00DC
:100030000C945D000C945D000C945D000C945D00CC
:100040000C945D000C945D000C945D000C945D00BC
:100050000C945D000C945D000C945D000C945D00AC
:100060000C945D000C945D000C945D000C945D009C
:100070000C945D000C945D000C945D000C945D008C
:100080000C945D000C945D000C945D0011241FBE67
:10009000CFEFD0E1DEBFCDBF11E0A0E0B1E0EEE0F8
:1000A000F1E000E00BBF02C007900D92A030B10755
:1000B000D9F70E9463000C9485000C9400008FEF28
:1000C00084BB85BB0895DF93CF9300D00F92CDB74B
:1000D000DEB78FEF84BB85BB198210C01B821A82EA
:1000E00005C08A819B8101969B838A838A819B813B
:1000F00080569A4EB0F389818F5F898389818A30D7
:0E01000068F3FA9A85B38095E6CFF894FFCFA6
:00000001FF
