:100000000C9446000C9463000C9463000C94630001
:100010000C9463000C9463000C9463000C946300D4
:100020000C9463000C9463000C9463000C946300C4
:100030000C9463000C9463000C9463000C946300B4
:100040000C9463000C9463000C9463000C946300A4
:100050000C9463000C9463000C9463000C94630094
:100060000C9463000C9463000C9463000C94630084
:100070000C9463000C9463000C9463000C94630074
:100080000C9463000C9463000C94630011241FBE55
:10009000CFEFD0E1DEBFCDBF11E0A0E0B1E0E4E5FD
:1000A000F1E000E00BBF02C007900D92A832B1074B
:1000B000D9F711E0A8E2B1E001C01D92A832B10762
:1000C000E1F70C9494000C940000292F332720931F
:1000D00098008093990088E180939A008EE0809345
:1000E0009D00089587E690E00E9465000895809144
:1000F0009B0087FFFCCF80919C0099270895982F43
:1001000080919B0085FFFCCF90939C000895FC019B
:1001100007C080919B0085FFFCCF319690939C0097
:1001200090819923B1F708950E94720080E091E0D8
:100130000E94870087B38F7387BBB79904C08EE096
:1001400091E00E9487008699F8CF8BE191E00E94B0
:040150008700F3CF62
:100154000A0D205354415254204D41494E000A5334
:1001640057312050524553534544000A53573220C7
:0801740050524553534544006D
:00000001FF
